{
  "contractName": "TheLuxuryStake",
  "abi": [
    {
      "inputs": [],
      "stateMutability": "nonpayable",
      "type": "constructor"
    },
    {
      "anonymous": false,
      "inputs": [
        {
          "indexed": true,
          "internalType": "address",
          "name": "previousOwner",
          "type": "address"
        },
        {
          "indexed": true,
          "internalType": "address",
          "name": "newOwner",
          "type": "address"
        }
      ],
      "name": "OwnershipTransferred",
      "type": "event"
    },
    {
      "anonymous": false,
      "inputs": [
        {
          "indexed": false,
          "internalType": "address",
          "name": "",
          "type": "address"
        },
        {
          "indexed": false,
          "internalType": "uint256",
          "name": "",
          "type": "uint256"
        }
      ],
      "name": "Received",
      "type": "event"
    },
    {
      "anonymous": false,
      "inputs": [
        {
          "indexed": true,
          "internalType": "address",
          "name": "from_",
          "type": "address"
        },
        {
          "indexed": true,
          "internalType": "address",
          "name": "to_",
          "type": "address"
        },
        {
          "indexed": false,
          "internalType": "uint256",
          "name": "amount_",
          "type": "uint256"
        }
      ],
      "name": "StakeFailed",
      "type": "event"
    },
    {
      "anonymous": false,
      "inputs": [
        {
          "indexed": true,
          "internalType": "address",
          "name": "user",
          "type": "address"
        },
        {
          "indexed": false,
          "internalType": "uint256",
          "name": "amount",
          "type": "uint256"
        },
        {
          "indexed": false,
          "internalType": "uint256",
          "name": "index",
          "type": "uint256"
        },
        {
          "indexed": false,
          "internalType": "uint256",
          "name": "timestamp",
          "type": "uint256"
        },
        {
          "indexed": false,
          "internalType": "uint256",
          "name": "period",
          "type": "uint256"
        }
      ],
      "name": "StakeSuccessful",
      "type": "event"
    },
    {
      "inputs": [],
      "name": "ERC20Interface",
      "outputs": [
        {
          "internalType": "contract ERC20",
          "name": "",
          "type": "address"
        }
      ],
      "stateMutability": "view",
      "type": "function"
    },
    {
      "inputs": [],
      "name": "_total_reward",
      "outputs": [
        {
          "internalType": "uint256",
          "name": "",
          "type": "uint256"
        }
      ],
      "stateMutability": "view",
      "type": "function"
    },
    {
      "inputs": [],
      "name": "_total_staked",
      "outputs": [
        {
          "internalType": "uint256",
          "name": "",
          "type": "uint256"
        }
      ],
      "stateMutability": "view",
      "type": "function"
    },
    {
      "inputs": [],
      "name": "owner",
      "outputs": [
        {
          "internalType": "address",
          "name": "",
          "type": "address"
        }
      ],
      "stateMutability": "view",
      "type": "function"
    },
    {
      "inputs": [],
      "name": "renounceOwnership",
      "outputs": [],
      "stateMutability": "nonpayable",
      "type": "function"
    },
    {
      "inputs": [
        {
          "internalType": "address",
          "name": "newOwner",
          "type": "address"
        }
      ],
      "name": "transferOwnership",
      "outputs": [],
      "stateMutability": "nonpayable",
      "type": "function"
    },
    {
      "stateMutability": "payable",
      "type": "receive"
    },
    {
      "inputs": [
        {
          "internalType": "uint256",
          "name": "index",
          "type": "uint256"
        }
      ],
      "name": "getRewards",
      "outputs": [
        {
          "internalType": "uint256",
          "name": "",
          "type": "uint256"
        }
      ],
      "stateMutability": "view",
      "type": "function"
    },
    {
      "inputs": [
        {
          "internalType": "uint256",
          "name": "index",
          "type": "uint256"
        }
      ],
      "name": "getPeriod",
      "outputs": [
        {
          "internalType": "uint256",
          "name": "",
          "type": "uint256"
        }
      ],
      "stateMutability": "view",
      "type": "function"
    },
    {
      "inputs": [],
      "name": "getStakedAmount",
      "outputs": [
        {
          "internalType": "uint256",
          "name": "",
          "type": "uint256"
        }
      ],
      "stateMutability": "view",
      "type": "function"
    },
    {
      "inputs": [],
      "name": "getTotalRewards",
      "outputs": [
        {
          "internalType": "uint256",
          "name": "",
          "type": "uint256"
        }
      ],
      "stateMutability": "view",
      "type": "function"
    },
    {
      "inputs": [],
      "name": "balance",
      "outputs": [
        {
          "internalType": "uint256",
          "name": "",
          "type": "uint256"
        }
      ],
      "stateMutability": "view",
      "type": "function"
    },
    {
      "inputs": [
        {
          "internalType": "uint256",
          "name": "amount_",
          "type": "uint256"
        },
        {
          "internalType": "uint256",
          "name": "period_",
          "type": "uint256"
        }
      ],
      "name": "stakeTokens",
      "outputs": [],
      "stateMutability": "nonpayable",
      "type": "function"
    },
    {
      "inputs": [
        {
          "internalType": "address",
          "name": "beneficiary_",
          "type": "address"
        },
        {
          "internalType": "uint256",
          "name": "index",
          "type": "uint256"
        }
      ],
      "name": "withdrawStake",
      "outputs": [],
      "stateMutability": "payable",
      "type": "function"
    },
    {
      "inputs": [],
      "name": "getUserStakes",
      "outputs": [
        {
          "components": [
            {
              "internalType": "address",
              "name": "user",
              "type": "address"
            },
            {
              "internalType": "uint256",
              "name": "amount",
              "type": "uint256"
            },
            {
              "internalType": "uint256",
              "name": "since",
              "type": "uint256"
            },
            {
              "internalType": "uint256",
              "name": "period",
              "type": "uint256"
            },
            {
              "internalType": "uint256",
              "name": "claimable",
              "type": "uint256"
            }
          ],
          "internalType": "struct TheLuxuryStake.Stake[]",
          "name": "",
          "type": "tuple[]"
        }
      ],
      "stateMutability": "view",
      "type": "function"
    },
    {
      "inputs": [
        {
          "internalType": "address payable",
          "name": "beneficiary",
          "type": "address"
        }
      ],
      "name": "withdraw",
      "outputs": [],
      "stateMutability": "payable",
      "type": "function"
    }
  ],
  "bytecode": "0x60a0604052735daa4d0b53320a118e2ba475beac22a39753230473ffffffffffffffffffffffffffffffffffffffff1660809073ffffffffffffffffffffffffffffffffffffffff1660601b81525034801561005a57600080fd5b5061007761006c61023060201b60201c565b61023860201b60201c565b33600460006101000a81548173ffffffffffffffffffffffffffffffffffffffff021916908373ffffffffffffffffffffffffffffffffffffffff16021790555060018081600181540180825580915050039060005260206000209050506002620f742f90806001815401808255809150506001900390600052602060002001600090919091909150556002620f876c90806001815401808255809150506001900390600052602060002001600090919091909150556002620fa2dd90806001815401808255809150506001900390600052602060002001600090919091909150556002620fc6489080600181540180825580915050600190039060005260206000200160009091909190915055600360019080600181540180825580915050600190039060005260206000200160009091909190915055600380806001815401808255809150506001900390600052602060002001600090919091909150556003600690806001815401808255809150506001900390600052602060002001600090919091909150556003600c90806001815401808255809150506001900390600052602060002001600090919091909150556102fc565b600033905090565b60008060009054906101000a900473ffffffffffffffffffffffffffffffffffffffff169050816000806101000a81548173ffffffffffffffffffffffffffffffffffffffff021916908373ffffffffffffffffffffffffffffffffffffffff1602179055508173ffffffffffffffffffffffffffffffffffffffff168173ffffffffffffffffffffffffffffffffffffffff167f8be0079c531659141344cd1fd0a4f28419497f9722a3daafe3b4186f6b6457e060405160405180910390a35050565b60805160601c61240c6200031b600039600061041a015261240c6000f3fe6080604052600436106100ec5760003560e01c8063a4e15db91161008a578063c606627211610059578063c606627214610309578063e627f2db14610325578063e99881e814610350578063f2fde38b1461037b5761012c565b8063a4e15db91461024b578063a5ba1ca914610276578063b69ef8a8146102a1578063c0d8012c146102cc5761012c565b80634b2c0706116100c65780634b2c0706146101b057806351cff8d9146101ed578063715018a6146102095780638da5cb5b146102205761012c565b80631bbc4b83146101315780631c7baa2b1461015c5780633b7b6188146101875761012c565b3661012c577f88a5966d370b9919b20f3e2c13ff65706f196a4e32cc2c12bf57088f885258743334604051610122929190611cbb565b60405180910390a1005b600080fd5b34801561013d57600080fd5b506101466103a4565b6040516101539190611d06565b60405180910390f35b34801561016857600080fd5b506101716103ca565b60405161017e9190611e41565b60405180910390f35b34801561019357600080fd5b506101ae60048036038101906101a991906119a0565b6103d0565b005b3480156101bc57600080fd5b506101d760048036038101906101d2919061194e565b610899565b6040516101e49190611e41565b60405180910390f35b610207600480360381019061020291906118c0565b6108e7565b005b34801561021557600080fd5b5061021e6109ad565b005b34801561022c57600080fd5b50610235610a35565b6040516102429190611c40565b60405180910390f35b34801561025757600080fd5b50610260610a5e565b60405161026d9190611e41565b60405180910390f35b34801561028257600080fd5b5061028b610a68565b6040516102989190611ce4565b60405180910390f35b3480156102ad57600080fd5b506102b6610d4d565b6040516102c39190611e41565b60405180910390f35b3480156102d857600080fd5b506102f360048036038101906102ee919061194e565b610d55565b6040516103009190611e41565b60405180910390f35b610323600480360381019061031e91906118e9565b610da3565b005b34801561033157600080fd5b5061033a6112b1565b6040516103479190611e41565b60405180910390f35b34801561035c57600080fd5b506103656112bb565b6040516103729190611e41565b60405180910390f35b34801561038757600080fd5b506103a2600480360381019061039d9190611897565b6112c1565b005b600660009054906101000a900473ffffffffffffffffffffffffffffffffffffffff1681565b60085481565b60008211610413576040517f08c379a000000000000000000000000000000000000000000000000000000000815260040161040a90611da1565b60405180910390fd5b60003390507f0000000000000000000000000000000000000000000000000000000000000000600660006101000a81548173ffffffffffffffffffffffffffffffffffffffff021916908373ffffffffffffffffffffffffffffffffffffffff160217905550600660009054906101000a900473ffffffffffffffffffffffffffffffffffffffff1673ffffffffffffffffffffffffffffffffffffffff1663dd62ed3e82306040518363ffffffff1660e01b81526004016104d6929190611c5b565b60206040518083038186803b1580156104ee57600080fd5b505afa158015610502573d6000803e3d6000fd5b505050506040513d601f19601f820116820180604052508101906105269190611977565b831115610597573073ffffffffffffffffffffffffffffffffffffffff168173ffffffffffffffffffffffffffffffffffffffff167f19e39b03dd7e2296346ea66f3481e266fbb82054a9402e7f98d1ec8da119dca48560405161058a9190611e41565b60405180910390a3600080fd5b600660009054906101000a900473ffffffffffffffffffffffffffffffffffffffff1673ffffffffffffffffffffffffffffffffffffffff166323b872dd8230866040518463ffffffff1660e01b81526004016105f693929190611c84565b602060405180830381600087803b15801561061057600080fd5b505af1158015610624573d6000803e3d6000fd5b505050506040513d601f19601f820116820180604052508101906106489190611925565b610687576040517f08c379a000000000000000000000000000000000000000000000000000000000815260040161067e90611e01565b60405180910390fd5b6000600560003373ffffffffffffffffffffffffffffffffffffffff1673ffffffffffffffffffffffffffffffffffffffff168152602001908152602001600020549050600042905060008214156106e5576106e2336113b9565b91505b60006106f186866114c4565b90506001838154811061072d577f4e487b7100000000000000000000000000000000000000000000000000000000600052603260045260246000fd5b90600052602060002090600202016001016040518060a001604052803373ffffffffffffffffffffffffffffffffffffffff16815260200188815260200184815260200187815260200183815250908060018154018082558091505060019003906000526020600020906005020160009091909190915060008201518160000160006101000a81548173ffffffffffffffffffffffffffffffffffffffff021916908373ffffffffffffffffffffffffffffffffffffffff1602179055506020820151816001015560408201518160020155606082015181600301556080820151816004015550508373ffffffffffffffffffffffffffffffffffffffff167f3c76af92589cd2131d262c4692f269a83b5c1627bb3379ed08c899fe86b0d2a4878585896040516108619493929190611e5c565b60405180910390a2856007546108779190611eeb565b6007819055508060085461088b9190611eeb565b600881905550505050505050565b6000600382815481106108d5577f4e487b7100000000000000000000000000000000000000000000000000000000600052603260045260246000fd5b90600052602060002001549050919050565b6108ef611519565b73ffffffffffffffffffffffffffffffffffffffff1661090d610a35565b73ffffffffffffffffffffffffffffffffffffffff1614610963576040517f08c379a000000000000000000000000000000000000000000000000000000000815260040161095a90611d61565b60405180910390fd5b8073ffffffffffffffffffffffffffffffffffffffff166108fc479081150290604051600060405180830381858888f193505050501580156109a9573d6000803e3d6000fd5b5050565b6109b5611519565b73ffffffffffffffffffffffffffffffffffffffff166109d3610a35565b73ffffffffffffffffffffffffffffffffffffffff1614610a29576040517f08c379a0000000000000000000000000000000000000000000000000000000008152600401610a2090611d61565b60405180910390fd5b610a336000611521565b565b60008060009054906101000a900473ffffffffffffffffffffffffffffffffffffffff16905090565b6000600754905090565b60606000600560003373ffffffffffffffffffffffffffffffffffffffff1673ffffffffffffffffffffffffffffffffffffffff168152602001908152602001600020549050600060018281548110610aea577f4e487b7100000000000000000000000000000000000000000000000000000000600052603260045260246000fd5b90600052602060002090600202016001018054905067ffffffffffffffff811115610b3e577f4e487b7100000000000000000000000000000000000000000000000000000000600052604160045260246000fd5b604051908082528060200260200182016040528015610b7757816020015b610b646117e9565b815260200190600190039081610b5c5790505b50905060005b60018381548110610bb7577f4e487b7100000000000000000000000000000000000000000000000000000000600052603260045260246000fd5b906000526020600020906002020160010180549050811015610d445760018381548110610c0d577f4e487b7100000000000000000000000000000000000000000000000000000000600052603260045260246000fd5b90600052602060002090600202016001018181548110610c56577f4e487b7100000000000000000000000000000000000000000000000000000000600052603260045260246000fd5b90600052602060002090600502016040518060a00160405290816000820160009054906101000a900473ffffffffffffffffffffffffffffffffffffffff1673ffffffffffffffffffffffffffffffffffffffff1673ffffffffffffffffffffffffffffffffffffffff168152602001600182015481526020016002820154815260200160038201548152602001600482015481525050828281518110610d26577f4e487b7100000000000000000000000000000000000000000000000000000000600052603260045260246000fd5b60200260200101819052508080610d3c9061207e565b915050610b7d565b50809250505090565b600047905090565b600060028281548110610d91577f4e487b7100000000000000000000000000000000000000000000000000000000600052603260045260246000fd5b90600052602060002001549050919050565b6000600560003373ffffffffffffffffffffffffffffffffffffffff1673ffffffffffffffffffffffffffffffffffffffff168152602001908152602001600020541415610e26576040517f08c379a0000000000000000000000000000000000000000000000000000000008152600401610e1d90611e21565b60405180910390fd5b6000610e31826115e5565b905047811015610e76576040517f08c379a0000000000000000000000000000000000000000000000000000000008152600401610e6d90611de1565b60405180910390fd5b600660009054906101000a900473ffffffffffffffffffffffffffffffffffffffff1673ffffffffffffffffffffffffffffffffffffffff1663095ea7b330836040518363ffffffff1660e01b8152600401610ed3929190611cbb565b602060405180830381600087803b158015610eed57600080fd5b505af1158015610f01573d6000803e3d6000fd5b505050506040513d601f19601f82011682018060405250810190610f259190611925565b610f64576040517f08c379a0000000000000000000000000000000000000000000000000000000008152600401610f5b90611d81565b60405180910390fd5b600660009054906101000a900473ffffffffffffffffffffffffffffffffffffffff1673ffffffffffffffffffffffffffffffffffffffff166323b872dd3085846040518463ffffffff1660e01b8152600401610fc393929190611c84565b602060405180830381600087803b158015610fdd57600080fd5b505af1158015610ff1573d6000803e3d6000fd5b505050506040513d601f19601f820116820180604052508101906110159190611925565b611054576040517f08c379a000000000000000000000000000000000000000000000000000000000815260040161104b90611d21565b60405180910390fd5b6000600560003373ffffffffffffffffffffffffffffffffffffffff1673ffffffffffffffffffffffffffffffffffffffff1681526020019081526020016000205490506000600182815481106110d4577f4e487b7100000000000000000000000000000000000000000000000000000000600052603260045260246000fd5b9060005260206000209060020201600101848154811061111d577f4e487b7100000000000000000000000000000000000000000000000000000000600052603260045260246000fd5b90600052602060002090600502016040518060a00160405290816000820160009054906101000a900473ffffffffffffffffffffffffffffffffffffffff1673ffffffffffffffffffffffffffffffffffffffff1673ffffffffffffffffffffffffffffffffffffffff16815260200160018201548152602001600282015481526020016003820154815260200160048201548152505090508281602001516111c69190611fcc565b81602001818152505060018281548110611209577f4e487b7100000000000000000000000000000000000000000000000000000000600052603260045260246000fd5b90600052602060002090600202016001018481548110611252577f4e487b7100000000000000000000000000000000000000000000000000000000600052603260045260246000fd5b9060005260206000209060050201600080820160006101000a81549073ffffffffffffffffffffffffffffffffffffffff0219169055600182016000905560028201600090556003820160009055600482016000905550505050505050565b6000600854905090565b60075481565b6112c9611519565b73ffffffffffffffffffffffffffffffffffffffff166112e7610a35565b73ffffffffffffffffffffffffffffffffffffffff161461133d576040517f08c379a000000000000000000000000000000000000000000000000000000000815260040161133490611d61565b60405180910390fd5b600073ffffffffffffffffffffffffffffffffffffffff168173ffffffffffffffffffffffffffffffffffffffff1614156113ad576040517f08c379a00000000000000000000000000000000000000000000000000000000081526004016113a490611d41565b60405180910390fd5b6113b681611521565b50565b600060018081600181540180825580915050039060005260206000209050506000600180805490506113eb9190611fcc565b90508260018281548110611428577f4e487b7100000000000000000000000000000000000000000000000000000000600052603260045260246000fd5b906000526020600020906002020160000160006101000a81548173ffffffffffffffffffffffffffffffffffffffff021916908373ffffffffffffffffffffffffffffffffffffffff16021790555080600560008573ffffffffffffffffffffffffffffffffffffffff1673ffffffffffffffffffffffffffffffffffffffff1681526020019081526020016000208190555080915050919050565b6000806114d083610d55565b905060006114dd84610899565b905084620f42408284886114f19190611f72565b6114fb9190611f72565b6115059190611f41565b61150f9190611fcc565b9250505092915050565b600033905090565b60008060009054906101000a900473ffffffffffffffffffffffffffffffffffffffff169050816000806101000a81548173ffffffffffffffffffffffffffffffffffffffff021916908373ffffffffffffffffffffffffffffffffffffffff1602179055508173ffffffffffffffffffffffffffffffffffffffff168173ffffffffffffffffffffffffffffffffffffffff167f8be0079c531659141344cd1fd0a4f28419497f9722a3daafe3b4186f6b6457e060405160405180910390a35050565b600080600560003373ffffffffffffffffffffffffffffffffffffffff1673ffffffffffffffffffffffffffffffffffffffff168152602001908152602001600020549050600060018281548110611666577f4e487b7100000000000000000000000000000000000000000000000000000000600052603260045260246000fd5b906000526020600020906002020160010184815481106116af577f4e487b7100000000000000000000000000000000000000000000000000000000600052603260045260246000fd5b90600052602060002090600502016040518060a00160405290816000820160009054906101000a900473ffffffffffffffffffffffffffffffffffffffff1673ffffffffffffffffffffffffffffffffffffffff1673ffffffffffffffffffffffffffffffffffffffff1681526020016001820154815260200160028201548152602001600382015481526020016004820154815250509050600081602001519050600082608001519050600062278d008460400151426117709190611fcc565b61177a9190611f41565b9050600061178b8560600151610899565b9050808210156117d0576040517f08c379a00000000000000000000000000000000000000000000000000000000081526004016117c790611dc1565b60405180910390fd5b82846117dc9190611eeb565b9650505050505050919050565b6040518060a00160405280600073ffffffffffffffffffffffffffffffffffffffff168152602001600081526020016000815260200160008152602001600081525090565b60008135905061183d8161237a565b92915050565b60008135905061185281612391565b92915050565b600081519050611867816123a8565b92915050565b60008135905061187c816123bf565b92915050565b600081519050611891816123bf565b92915050565b6000602082840312156118a957600080fd5b60006118b78482850161182e565b91505092915050565b6000602082840312156118d257600080fd5b60006118e084828501611843565b91505092915050565b600080604083850312156118fc57600080fd5b600061190a8582860161182e565b925050602061191b8582860161186d565b9150509250929050565b60006020828403121561193757600080fd5b600061194584828501611858565b91505092915050565b60006020828403121561196057600080fd5b600061196e8482850161186d565b91505092915050565b60006020828403121561198957600080fd5b600061199784828501611882565b91505092915050565b600080604083850312156119b357600080fd5b60006119c18582860161186d565b92505060206119d28582860161186d565b9150509250929050565b60006119e88383611bba565b60a08301905092915050565b6119fd81612000565b82525050565b611a0c81612000565b82525050565b6000611a1d82611eb1565b611a278185611ec9565b9350611a3283611ea1565b8060005b83811015611a63578151611a4a88826119dc565b9750611a5583611ebc565b925050600181019050611a36565b5085935050505092915050565b611a798161205a565b82525050565b6000611a8c602883611eda565b9150611a9782612125565b604082019050919050565b6000611aaf602683611eda565b9150611aba82612174565b604082019050919050565b6000611ad2602083611eda565b9150611add826121c3565b602082019050919050565b6000611af5601883611eda565b9150611b00826121ec565b602082019050919050565b6000611b18601483611eda565b9150611b2382612215565b602082019050919050565b6000611b3b602e83611eda565b9150611b468261223e565b604082019050919050565b6000611b5e604183611eda565b9150611b698261228d565b606082019050919050565b6000611b81602383611eda565b9150611b8c82612302565b604082019050919050565b6000611ba4601283611eda565b9150611baf82612351565b602082019050919050565b60a082016000820151611bd060008501826119f4565b506020820151611be36020850182611c22565b506040820151611bf66040850182611c22565b506060820151611c096060850182611c22565b506080820151611c1c6080850182611c22565b50505050565b611c2b81612050565b82525050565b611c3a81612050565b82525050565b6000602082019050611c556000830184611a03565b92915050565b6000604082019050611c706000830185611a03565b611c7d6020830184611a03565b9392505050565b6000606082019050611c996000830186611a03565b611ca66020830185611a03565b611cb36040830184611c31565b949350505050565b6000604082019050611cd06000830185611a03565b611cdd6020830184611c31565b9392505050565b60006020820190508181036000830152611cfe8184611a12565b905092915050565b6000602082019050611d1b6000830184611a70565b92915050565b60006020820190508181036000830152611d3a81611a7f565b9050919050565b60006020820190508181036000830152611d5a81611aa2565b9050919050565b60006020820190508181036000830152611d7a81611ac5565b9050919050565b60006020820190508181036000830152611d9a81611ae8565b9050919050565b60006020820190508181036000830152611dba81611b0b565b9050919050565b60006020820190508181036000830152611dda81611b2e565b9050919050565b60006020820190508181036000830152611dfa81611b51565b9050919050565b60006020820190508181036000830152611e1a81611b74565b9050919050565b60006020820190508181036000830152611e3a81611b97565b9050919050565b6000602082019050611e566000830184611c31565b92915050565b6000608082019050611e716000830187611c31565b611e7e6020830186611c31565b611e8b6040830185611c31565b611e986060830184611c31565b95945050505050565b6000819050602082019050919050565b600081519050919050565b6000602082019050919050565b600082825260208201905092915050565b600082825260208201905092915050565b6000611ef682612050565b9150611f0183612050565b9250827fffffffffffffffffffffffffffffffffffffffffffffffffffffffffffffffff03821115611f3657611f356120c7565b5b828201905092915050565b6000611f4c82612050565b9150611f5783612050565b925082611f6757611f666120f6565b5b828204905092915050565b6000611f7d82612050565b9150611f8883612050565b9250817fffffffffffffffffffffffffffffffffffffffffffffffffffffffffffffffff0483118215151615611fc157611fc06120c7565b5b828202905092915050565b6000611fd782612050565b9150611fe283612050565b925082821015611ff557611ff46120c7565b5b828203905092915050565b600061200b82612030565b9050919050565b600061201d82612030565b9050919050565b60008115159050919050565b600073ffffffffffffffffffffffffffffffffffffffff82169050919050565b6000819050919050565b60006120658261206c565b9050919050565b600061207782612030565b9050919050565b600061208982612050565b91507fffffffffffffffffffffffffffffffffffffffffffffffffffffffffffffffff8214156120bc576120bb6120c7565b5b600182019050919050565b7f4e487b7100000000000000000000000000000000000000000000000000000000600052601160045260246000fd5b7f4e487b7100000000000000000000000000000000000000000000000000000000600052601260045260246000fd5b7f4661696c656420746f207472616e7366657220746f6b656e7320746f2062656e60008201527f6566696369617279000000000000000000000000000000000000000000000000602082015250565b7f4f776e61626c653a206e6577206f776e657220697320746865207a65726f206160008201527f6464726573730000000000000000000000000000000000000000000000000000602082015250565b7f4f776e61626c653a2063616c6c6572206973206e6f7420746865206f776e6572600082015250565b7f4661696c656420746f20617070726f766520746f6b656e730000000000000000600082015250565b7f43616e6e6f74207374616b65206e6f7468696e67000000000000000000000000600082015250565b7f5374616b65206973206c6f636b656420666f722074686520696e697469616c2060008201527f646566696e656420706572696f64000000000000000000000000000000000000602082015250565b7f57652063616e6e6f742070726f6365737320796f75722072657175657374207260008201527f69676874206e6f772e20506c6561736520636f6d65206261636b206c6174657260208201527f2e00000000000000000000000000000000000000000000000000000000000000604082015250565b7f4661696c656420746f207472616e7366657220746f6b656e7320746f206c6f6360008201527f6b65720000000000000000000000000000000000000000000000000000000000602082015250565b7f5573657220686173206e6f207374616b65210000000000000000000000000000600082015250565b61238381612000565b811461238e57600080fd5b50565b61239a81612012565b81146123a557600080fd5b50565b6123b181612024565b81146123bc57600080fd5b50565b6123c881612050565b81146123d357600080fd5b5056fea2646970667358221220c38062d604bfa85f400967972b28466bd8cc611de438ccb062d4c2bd1a1b236464736f6c63430008040033",
  "immutableReferences": {
    "895": [
      {
        "length": 32,
        "start": 1050
      }
    ]
  },
  "source": "// SPDX-License-Identifier: MIT\npragma solidity ^0.8.4;\n\nimport \"./Ownable.sol\";\nimport \"./ERC20.sol\";\n\ncontract TheLuxuryStake is Ownable {\n\n    /*\n    * Constructor since this contract is not ment to be used without inheritance\n    * push once to stakeholders for it to work proplerly\n    */\n    constructor() {\n        _stake_address = msg.sender;\n\n        // This push is needed so we avoid index 0 causing bug of index-1\n        stakeholders.push();\n\n        // populate rewards\n        _rewards.push(uint(1012783)); // 15.34 per year means 1.2783 % per month means 1.012783 factor\n        _rewards.push(uint(1017708)); // 21.25 per year means 1.7708 % per month means 1.017708 factor\n        _rewards.push(uint(1024733)); // 29.68 per year means 2.4733 % per month means 1.024733 factor\n        _rewards.push(uint(1033800)); // 40.56 per year means 3.3800 % per month means 1.033800 factor\n\n        // populate periods with monts\n        _periods.push(uint(1));\n        _periods.push(uint(3));\n        _periods.push(uint(6));\n        _periods.push(uint(12));\n    }\n\n    /**\n    * A stake struct is used to represent the way we store stakes, \n    * A Stake will contain the users address, the amount staked and a timestamp, \n    * Since which is when the stake was made\n    */\n    struct Stake{\n        address user;\n        uint256 amount;\n        uint256 since;\n        uint    period;      // this represent the stake interval - values 0 - 1 month, 1 - 3 months, 2 - 6 months, 3 - 12 months\n        uint256 claimable;   // This claimable field is new and used to tell how big of a reward is currently available\n    }\n\n    /**\n    * Stakeholder is a staker that has active stakes\n    */\n    struct Stakeholder{\n        address user;\n        Stake[] address_stakes;\n    }\n\n    /**\n    * StakingSummary is a struct that is used to contain all stakes performed by a certain account\n    */ \n     struct StakingSummary{\n         uint256 total_amount;\n         Stake[] stakes;\n    }\n\n    /**\n    * @dev Details of each transfer\n    * @param contract_ contract address of ER20 token to transfer\n    * @param to_ receiving account\n    * @param amount_ number of tokens to transfer to_ account\n    * @param failed_ if transfer was successful or not\n    */\n    \n    /** CONSTANTS **/\n\n    address immutable tokenAddress = 0x5dAA4d0B53320A118E2bA475beAC22A397532304;\n\n\n    /** VARIABLES **/\n\n    /*\n    *   This is a array where we store all Stakes that are performed on the Contract\n    *   The stakes for each address are stored at a certain index, the index can be found using the stakes mapping\n    */\n    Stakeholder[] internal stakeholders;\n\n    uint[] private _rewards;\n    uint[] private _periods;\n\n    address private _stake_address; // the addres where all stakes will deposit \n\n    /*\n    * stakes is used to keep track of the INDEX for the stakers in the stakes array\n    */\n    mapping(address => uint256) internal stakes;\n\n    ERC20 public ERC20Interface;\n\n    uint256 public _total_staked;\n    uint256 public _total_reward;\n\n    /** EVENTS **/\n\n    event StakeSuccessful(address indexed user, uint256 amount, uint256 index, uint256 timestamp, uint period);\n    event StakeFailed(address indexed from_, address indexed to_, uint256 amount_);\n\n    /** METHODS **/\n\n    /**\n    * getRewards will get the reward value for a specific period\n    */\n    function getRewards(uint index) public view returns (uint) {\n        return _rewards[index];\n    }\n\n    /**\n    * getPeriod will get the period in months for a specific index\n    */\n    function getPeriod(uint index) public view returns (uint) {\n        return _periods[index];\n    }\n\n    function getStakedAmount() public view returns (uint256) {\n        return _total_staked;\n    }\n\n    function getTotalRewards() public view returns (uint256) {\n        return _total_reward;\n    }\n\n    function balance() public view returns (uint256) {\n        return address(this).balance;\n    }\n\n\n    /** BUSINESS LOGIC */\n\n    /**\n      * calculateStakeReward is used to calculate how much a user should be rewarded for their stakes\n      * It depend on stake period\n     */\n    function calculateStakeReward(uint256 amount_, uint period_) internal view returns(uint256){\n        uint reward = getRewards(period_);\n        uint period = getPeriod(period_);\n        return (amount_*reward*period)/1000000 - amount_;\n    }\n\n    /*\n    *  _addStakeholder add a stakeholder to the stakeholders array\n    */\n    function _addStakeholder(address staker) internal returns (uint256){\n        // Push a empty item to the Array to make space for our new stakeholder\n        stakeholders.push();\n        // Calculate the index of the last item in the array by Len-1\n        uint256 userIndex = stakeholders.length - 1;\n        // Assign the address to the new index\n        stakeholders[userIndex].user = staker;\n        // Add index to the stakeHolders\n        stakes[staker] = userIndex;\n        return userIndex; \n    }\n\n    /*\n    * method that handles transfer of ERC20 tokens to other address\n    * it assumes the calling address has approved this contract as spender\n    * @param amount_ numbers of token to transfer\n    * @param period_ number of monts to stakes\n    */\n    function stakeTokens(uint256 amount_, uint period_) external {\n        // Simple check so that user does not stake 0 \n        require(amount_ > 0, \"Cannot stake nothing\");\n\n        // first we try to create the stake\n        address from_ = msg.sender;\n\n        ERC20Interface =  ERC20(tokenAddress);\n        if(amount_ > ERC20Interface.allowance(from_, address(this))) {\n            emit StakeFailed(from_, address(this), amount_);\n            revert();\n        }\n\n        // IMPORTANT !!! //\n        // Before calling transferFrom, you need to call approve on the token contract for this contract address\n        require(ERC20Interface.transferFrom(from_, address(this), amount_), 'Failed to transfer tokens to locker');\n\n        // The stake is created, now we need to store the values inside the contract\n\n        // Mappings in solidity creates all values, but empty, so we can just check the address\n        uint256 index = stakes[msg.sender];\n\n        // block.timestamp = timestamp of the current block in seconds since the epoch\n        uint256 timestamp = block.timestamp;\n\n        // See if the staker already has a staked index or if its the first time\n        if(index == 0){\n            // This stakeholder stakes for the first time\n            // We need to add him to the stakeHolders and also map it into the Index of the stakes\n            // The index returned will be the index of the stakeholder in the stakeholders array\n            index = _addStakeholder(msg.sender);\n        }\n\n        uint256 reward = calculateStakeReward(amount_, period_);\n\n        // push a newly created Stake with the current block timestamp.\n        stakeholders[index].address_stakes.push(Stake(msg.sender, amount_, timestamp, period_, reward));\n\n        // Emit an event that the stake has occured\n        emit StakeSuccessful(from_, amount_, index,timestamp, period_);\n\n        // update the total staked amount\n        _total_staked = _total_staked + amount_;\n        _total_reward = _total_reward + reward;\n    }\n\n    /**\n     * @notice\n     * withdrawStake takes in an amount and a index of the stake and will remove tokens from that stake\n     * Notice index of the stake is the users stake counter, starting at 0 for the first stake\n     * Will return the amount to MINT onto the acount\n     * Will also calculateStakeReward and reset timer\n    */\n    function _withdrawStake(uint256 index) internal view returns(uint256){\n        // Grab user_index which is the index to use to grab the Stake[]\n        uint256 user_index = stakes[msg.sender];\n        // identify the stake by stake index\n        Stake memory current_stake = stakeholders[user_index].address_stakes[index];\n\n        uint256 amount = current_stake.amount;\n        uint256 reward = current_stake.claimable;\n\n        // check to see if the stake is locked\n        uint stakeAge = (block.timestamp - current_stake.since)/(3600*24*30); // number of months\n        uint period = getPeriod(current_stake.period); // number of monts for lock\n\n        require (stakeAge >= period, \"Stake is locked for the initial defined period\");\n        \n        return amount+reward;\n    }\n\n    function withdrawStake(address beneficiary_, uint256 index) external payable{\n        require(stakes[msg.sender] != 0, 'User has no stake!');\n        uint256 amount = _withdrawStake(index);\n        require (amount >= address(this).balance, 'We cannot process your request right now. Please come back later.');\n        require(ERC20Interface.approve(address(this), amount), 'Failed to approve tokens');\n        require(ERC20Interface.transferFrom(address(this), beneficiary_, amount), 'Failed to transfer tokens to beneficiary');\n        \n        // updating information\n        // Grab user_index which is the index to use to grab the Stake[]\n        uint256 user_index = stakes[msg.sender];\n        // identify the stake by stake index\n        Stake memory current_stake = stakeholders[user_index].address_stakes[index];\n        // Remove by subtracting the money unstaked \n        current_stake.amount = current_stake.amount - amount;\n        // If stake is empty, 0, then remove it from the array of stakes\n        delete stakeholders[user_index].address_stakes[index];\n    }\n\n    // getUserStakes will return all stakes for a user\n    function getUserStakes() public view returns(Stake[] memory) {\n        // Grab user_index which is the index to use to grab the Stake[]\n        uint256 user_index = stakes[msg.sender];\n        // identify the stake by stake index\n        Stake[] memory user_stakes = new Stake[](stakeholders[user_index].address_stakes.length);\n        for (uint i=0 ; i < stakeholders[user_index].address_stakes.length; i++) {\n            user_stakes[i] = stakeholders[user_index].address_stakes[i];\n        }\n        return user_stakes;\n    }\n\n    /**\n    * @dev allow contract to receive funds\n    */\n    event Received(address, uint);\n    receive() external payable {\n        emit Received(msg.sender, msg.value);\n    }\n\n    /**\n    * @dev withdraw funds from this contract\n    * @param beneficiary address to receive ether\n    */\n    function withdraw(address payable beneficiary) public payable onlyOwner {\n        beneficiary.transfer(address(this).balance);\n    }\n\n}\n",
  "sourcePath": "/Users/radugheorghies/GoProjects/stake/TheLuxury4/contracts/TheLuxuryStake.sol",
  "compiler": {
    "name": "solc",
    "version": "0.8.4+commit.c7e474f2.Emscripten.clang"
  },
  "schemaVersion": "3.4.3",
  "updatedAt": "2021-11-07T17:16:52.045Z",
  "devdoc": {
    "events": {
      "Received(address,uint256)": {
        "details": "allow contract to receive funds"
      }
    },
    "kind": "dev",
    "methods": {
      "owner()": {
        "details": "Returns the address of the current owner."
      },
      "renounceOwnership()": {
        "details": "Leaves the contract without owner. It will not be possible to call `onlyOwner` functions anymore. Can only be called by the current owner. NOTE: Renouncing ownership will leave the contract without an owner, thereby removing any functionality that is only available to the owner."
      },
      "transferOwnership(address)": {
        "details": "Transfers ownership of the contract to a new account (`newOwner`). Can only be called by the current owner."
      },
      "withdraw(address)": {
        "details": "withdraw funds from this contract",
        "params": {
          "beneficiary": "address to receive ether"
        }
      }
    },
    "version": 1
  },
  "userdoc": {
    "events": {
      "StakeSuccessful(address,uint256,uint256,uint256,uint256)": {
        "notice": "EVENTS *"
      }
    },
    "kind": "user",
    "methods": {
      "getPeriod(uint256)": {
        "notice": "getPeriod will get the period in months for a specific index"
      },
      "getRewards(uint256)": {
        "notice": "getRewards will get the reward value for a specific period"
      }
    },
    "version": 1
  }
}